:03000000020008F3
:070061007508047509C07564
:060068000AF9750BA475F6
:06006E000CB0750D997540
:060074000E92750F82756B
:06007A0010F07511807505
:020080001290DC
:0300820002000376
:050003001202DC80FE8A
:0E0085007A007B007590F0AC90BC7002801980
:05009300BCB00280106A
:05009800BCD00280074E
:07009D00BCE00E7A01800AAD
:0400A4007A02800656
:0400A8007A03800255
:0200AC007A04D4
:0A00AE0075900FAC90BC070280199A
:0500B800BC0B028010EA
:0500BD00BC0D028007EC
:0700C200BC0E0E7B01800A59
:0400C9007B02800630
:0400CD007B0380022F
:0200D1007B04AE
:0500D300E4BA01010484
:0A00D800FC6007BB010475820122E1
:0500E200E4BA02010474
:0A00E700FD6007BB010475820222D0
:0500F100E4BA03010464
:0A00F600FE6007BB010475820322BF
:05010000E4BA04010453
:0A010500FA6007BB010475820A22AC
:0A010F00EC6007BB020475820422B5
:0A011900ED6007BB020475820522A9
:0A012300EE6007BB0204758206229D
:0A012D00EA6007BB020475820B2292
:0A013700EC6007BB03047582072289
:0A014100ED6007BB0304758208227D
:0A014B00EE6007BB03047582092271
:0A015500EA6007BB030475820C2268
:0A015F00EC6007BB040475822A223D
:0A016900ED6007BB0404758200225C
:0A017300EE6007BB0404758223222E
:0A017D00EA6007BB040475820D223E
:040187007582FF225C
:0C018B00AA82D2B0D2B1D2B2D2B3E51B2E
:0A0197002409F886A07403B50200E5
:0901A1004036EA2A2A9001AA73F3
:0701AA000201B60201BF02D1
:0501B10001C80201D1AC
:0901B600D2B1D2B2D2B3C2B02220
:0901BF00D2B0D2B2D2B3C2B12217
:0901C800D2B3D2B1D2B0C2B2220E
:0801D100D2B0D2B1D2B2C2B328
:0101D9002203
:0C01DA00AA82AB83E51C700B8A0475F050
:0701E6000AEC8485F082227F
:0901ED007401B51C18751D0A759A
:0C01F6001E008A828B831202E4AC82752A
:08020200F00AEC8485F0822271
:0A020A00751D64751E008A828B8347
:030214000202E4FF
:06021700AA82AB837C000B
:04021D00ECB5080034
:0C02210050248C1C8A828B83C002C00316
:0C022D00C0041201DA85821BD0048C8210
:0E023900C00412018BD004D003D0020C80D67A
:010247002294
:09024800E50804F582751B0802AB
:02025100018B1F
:0702530075130AE4F514F530
:03025A0015F51681
:08025D00151374FFB5130C1515
:0502650014B51407159B
:05026A0015B515021599
:01026F001678
:05027000E513451445F3
:0602750015451670E3754B
:06027B00130AE4F514F57E
:0402810015F5162237
:0E028500A2938296503F120253A2938296508B
:0B02930039900457120217E4F513F530
:04029E0014F515F549
:0102A2001645
:0602A300C3E5139517E509
:0402A900149518E5AB
:0402AD00159519E5A5
:0602B10016951A50170516
:0602B70013E4B513E70596
:0502BD0014B514E20578
:0502C20015B515DD0576
:0302C7001680D9C5
:0302CA00020248E5
:0102CD00220E
:0A02CE00759001751701E4F518F5AD
:0402D80019F51A22D8
:0302DC001202CE3D
:0502DF0012028580FB06
:0502E4007A10E4FBFCB0
:0E02E900E58225E0F582E58333F583EB33FBF8
:0A02F700EC33FCEB951DF5F0EC95DF
:090301001E4006FCABF043820132
:03030A00DADD2217
:06003700E4787FF6D8FD1D
:080015007900E94400601B7A48
:05001D000090031178C2
:030022000075A0C6
:0A00250000E493F2A308B8000205FE
:08002F00A0D9F4DAF275A0FF7C
:08003D007800E84400600A7934
:030045000075A0A3
:0600480000E4F309D8FCFE
:08004E007800E84400600C7921
:0B00560000900000E4F0A3D8FCD9FAF1
:0300080075811EE1
:0A000B0012030DE5826003020003FA
:04030D0075820022D3
:00000001FF
