:03000000020008F3
:07006100750BC0750CF97569
:060068000DA4750EB07539
:06006E000F997510927558
:0600740011827512F07507
:05007A001380751490D5
:03007F0002000379
:050003001200E580FE83
:0700820075090AE4F50A7597
:0A008900080AD290D291751901E423
:05009300F51AF51BF554
:020098001C2228
:07009A00AA82E4BA00010490
:0A00A100E51D240BF886028AB08AE0
:0200AB00A02291
:0A00AD00751D0175820212009A759C
:0900B7001D0275820112009A7508
:0800C0001D0375820002009A85
:0A00C80030910FAA087B00C3EA95EF
:0700D20009EB950A5002053D
:0100D900081E
:0100DA002203
:0900DB00309006E50860021508EA
:0100E40022F9
:0300E50012008284
:0800E8009000641200AD80F8E5
:06003700E4787FF6D8FD1D
:080015007900E94400601B7A48
:05001D00009000F478E2
:030022000075A0C6
:0A00250000E493F2A308B8000205FE
:08002F00A0D9F4DAF275A0FF7C
:08003D007800E84400600A7934
:030045000075A0A3
:0600480000E4F309D8FCFE
:08004E007800E84400600C7921
:0B00560000900000E4F0A3D8FCD9FAF1
:0300080075811DE2
:0A000B001200F0E58260030200031A
:0400F00075820022F3
:00000001FF
