:03000000020008F3
:07006100750BC0750CF97569
:060068000DA4750EB07539
:06006E000F997510927558
:0600740011827512F07507
:05007A001380751490D5
:03007F0002000379
:0500030012013B80FE2C
:0700820075090AE4F50A7597
:0A008900080AD290D291751901E423
:05009300F51AF51BF554
:020098001C2228
:0B009A00AA82D2B0D2B1D2B2E51D2480
:0900A5000BF886A0BA0002800AE3
:0500AE00BA0102800C04
:0500B300BA0216800EE8
:0700B800D2B1D2B2C2B022A6
:0700BF00D2B0D2B2C2B1229F
:0600C600D2B3D2B1C2B2B8
:0100CC002211
:0400CD007582042212
:0C00D100AA82AB83751E038A828B83C059
:0C00DD0002C0031200CD85821D75820256
:0C00E90012009AD003D002751E028A8219
:0C00F5008B83C002C0031200CD85821D69
:0C01010075820112009AD003D002751E16
:0C010D00018A828B831200CD85821D7553
:05011900820002009AC3
:0A011E0030910FAA087B00C3EA9598
:0701280009EB950A500205E6
:01012F0008C7
:0101300022AC
:09013100309006E5086002150893
:01013A0022A2
:03013B001200822D
:08013E009000701200D180F85E
:06003700E4787FF6D8FD1D
:080015007900E94400601B7A48
:05001D000090014A788B
:030022000075A0C6
:0A00250000E493F2A308B8000205FE
:08002F00A0D9F4DAF275A0FF7C
:08003D007800E84400600A7934
:030045000075A0A3
:0600480000E4F309D8FCFE
:08004E007800E84400600C7921
:0B00560000900000E4F0A3D8FCD9FAF1
:0300080075811EE1
:0A000B00120146E5826003020003C3
:04014600758200229C
:00000001FF
