:03000000020008F3
:07006100750803750CC07562
:060068000DF9750EA475F0
:06006E000FB0751099753A
:0600740011927512827565
:06007A0013F075148075FF
:020080001590D9
:0300820002000376
:0500030012013380FE34
:07008500750A09E4F50B7593
:0A008C000909D290D291751A01E41F
:05009600F51BF51CF54F
:02009B001D2224
:0B009D00AA82D2B0D2B1D2B2E51E247C
:0900A8000CF886A0BA0002800ADF
:0500B100BA0102800C01
:0500B600BA0216800EE5
:0700BB00D2B1D2B2C2B022A3
:0700C200D2B0D2B2C2B1229C
:0600C900D2B3D2B1C2B2B5
:0100CF00220E
:0800D000E51F70047582022295
:0900D8007401B51F0475820322B6
:0400E10085098222E9
:0600E500AA82AB837C003F
:0A00EB00C3EC950850248C1F8A8294
:0D00F5008B83C002C003C0041200D08582BE
:0C0102001ED0048C82C00412009DD004AA
:07010E00D003D0020C80D6E3
:0101150022C7
:0A01160030910FAA097B00C3EA959F
:070120000AEB950B500205EC
:0101270009CE
:0101280022B4
:09012900309006E5096002150999
:0101320022AA
:0301330012008532
:08013600120129120116E4F583
:04013E0016F517F5A6
:0301420018F51994
:06014500C3E516951AE562
:04014B0017951BE504
:04014F0018951CE5FE
:0601530019951D50140572
:0601590016E4B516E705EF
:05015F0017B517E205D1
:0501640018B518DD05CF
:030169001980D921
:0C016C00AA097B008A828B831200E580C8
:01017800BDC9
:06003700E4787FF6D8FD1D
:080015007900E94400601B7A48
:05001D000090017D7858
:030022000075A0C6
:0A00250000E493F2A308B8000205FE
:08002F00A0D9F4DAF275A0FF7C
:08003D007800E84400600A7934
:030045000075A0A3
:0600480000E4F309D8FCFE
:08004E007800E84400600C7921
:0B00560000900000E4F0A3D8FCD9FAF1
:0300080075811FE0
:0A000B00120179E582600302000390
:040179007582002269
:00000001FF
