:03000000020008F3
:07006100750BC0750CF97569
:060068000DA4750EB07539
:06006E000F997510927558
:0600740011827512F07507
:05007A001380751490D5
:03007F0002000379
:050003001200D680FE92
:08008200850BA075090AE4F5E5
:09008A000A75080AD290D29175A2
:06009300190AE4F51AF55C
:040099001BF51C2215
:01009D002240
:0A009E00751D0075820212009D75A9
:0900A8001D0075820112009D7516
:0800B1001D0075820002009D94
:0A00B90030910FAA087B00C3EA95FE
:0700C30009EB950A5002054C
:0100CA00082D
:0100CB002212
:0900CC00309006E50860021508F9
:0100D5002208
:0300D60012008293
:0800D9001200CC1200B9E4F59D
:0400E10015F516F506
:0300E50017F518F4
:0600E800C3E5159519E5C2
:0400EE0016951AE564
:0400F20017951BE55E
:0600F60018951C501405D2
:0600FC0015E4B515E7054F
:0501020016B516E20530
:0501070017B517DD052E
:03010C001880D97F
:0C010F00AA087B008A828B8312009E806D
:01011B00BD26
:06003700E4787FF6D8FD1D
:080015007900E94400601B7A48
:05001D000090012078B5
:030022000075A0C6
:0A00250000E493F2A308B8000205FE
:08002F00A0D9F4DAF275A0FF7C
:08003D007800E84400600A7934
:030045000075A0A3
:0600480000E4F309D8FCFE
:08004E007800E84400600C7921
:0B00560000900000E4F0A3D8FCD9FAF1
:0300080075811DE2
:0A000B0012011CE5826003020003ED
:04011C0075820022C6
:00000001FF
