:03000000020008F3
:07006100750BC0750CF97569
:060068000DA4750EB07539
:06006E000F997510927558
:0600740011827512F07507
:05007A001380751490D5
:03007F0002000379
:0500030012009D80FECB
:0A00820075A0C075090AE4F50A75BF
:0A008C00080AD291D29275190AE415
:05009600F51AF51BF551
:02009B001C2225
:03009D00120082CC
:0900A000309106E5086002150824
:0A00A90030920FAA087B00C3EA950D
:0700B30009EB950A5002055C
:0100BA00083D
:0600BB00E4F515F516F551
:0300C10017F51818
:0600C400C3E5159519E5E6
:0400CA0016951AE588
:0400CE0017951BE582
:0600D20018951C501405F6
:0600D80015E4B515E70573
:0500DE0016B516E20555
:0500E30017B517DD0553
:0300E8001880D9A4
:0900EB00E508240BF886A080ACA6
:06003700E4787FF6D8FD1D
:080015007900E94400601B7A48
:05001D00009000F878DE
:030022000075A0C6
:0A00250000E493F2A308B8000205FE
:08002F00A0D9F4DAF275A0FF7C
:08003D007800E84400600A7934
:030045000075A0A3
:0600480000E4F309D8FCFE
:08004E007800E84400600C7921
:0B00560000900000E4F0A3D8FCD9FAF1
:0300080075811CE3
:0A000B001200F4E582600302000316
:0400F40075820022EF
:00000001FF
