:03000000020008F3
:07006100750BC0750CF97569
:060068000DA4750EB07539
:06006E000F997510927558
:0600740011827512F07507
:05007A001380751490D5
:03007F0002000379
:050003001200CD80FE9B
:0A00820075A0C075090AE4F50A75BF
:0A008C00080AD290D29175190AE417
:05009600F51AF51BF551
:02009B001C2225
:01009D002240
:0A009E00751D0075820112009D75AA
:0800A8001D0075820002009D9D
:0A00B00030910FAA087B00C3EA9507
:0700BA0009EB950A50020555
:0100C1000836
:0100C200221B
:0900C300309006E5086002150802
:0100CC002211
:0300CD001200829C
:0800D0001200C31200B0E4F5B8
:0400D80015F516F50F
:0300DC0017F518FD
:0600DF00C3E5159519E5CB
:0400E50016951AE56D
:0400E90017951BE567
:0600ED0018951C501405DB
:0600F30015E4B515E70558
:0500F90016B516E2053A
:0500FE0017B517DD0538
:030103001880D988
:0C010600AA087B008A828B8312009E8076
:01011200BD2F
:06003700E4787FF6D8FD1D
:080015007900E94400601B7A48
:05001D000090011778BE
:030022000075A0C6
:0A00250000E493F2A308B8000205FE
:08002F00A0D9F4DAF275A0FF7C
:08003D007800E84400600A7934
:030045000075A0A3
:0600480000E4F309D8FCFE
:08004E007800E84400600C7921
:0B00560000900000E4F0A3D8FCD9FAF1
:0300080075811DE2
:0A000B00120113E5826003020003F6
:0401130075820022CF
:00000001FF
