:03000000020008F3
:070061007509C0750AF9756D
:060068000BA4750CB0753D
:06006E000D99750E92755C
:060074000F827510F0750B
:05007A001180751290D9
:03007F0002000379
:0500030012008D80FEDB
:0B00820075A0C075080AD291D292222E
:03008D00120082DC
:090090003091FDE508600215083D
:08009900E5082409F886A075B2
:0500A10013E8751403D3
:0800A600151374FFB5130215D8
:0100AE00143D
:0700AF00E513451470F17523
:0700B60013E875140380D369
:06003700E4787FF6D8FD1D
:080015007900E94400601B7A48
:05001D00009000C17815
:030022000075A0C6
:0A00250000E493F2A308B8000205FE
:08002F00A0D9F4DAF275A0FF7C
:08003D007800E84400600A7934
:030045000075A0A3
:0600480000E4F309D8FCFE
:08004E007800E84400600C7921
:0B00560000900000E4F0A3D8FCD9FAF1
:03000800758114EB
:0A000B001200BDE58260030200034D
:0400BD007582002226
:00000001FF
