:03000000020008F3
:070061007509C0750AF9756D
:060068000BA4750CB0753D
:06006E000D99750E92755C
:060074000F827510F0750B
:05007A001180751290D9
:03007F0002000379
:0500030012009780FED1
:0B00820075A0C075080AD291D29275DB
:06008D00170AE4F518F566
:0400930019F51A221F
:03009700120082D2
:09009A00309136E50860021508FA
:0600A300E4F513F514F56D
:0300A90015F51634
:0600AC00C3E5139517E502
:0400B200149518E5A4
:0400B600159519E59E
:0600BA0016951A50140512
:0600C00013E4B513E7058F
:0500C60014B514E20571
:0500CB0015B515DD056F
:0300D0001680D9BE
:0900D300E5082409F886A080BEAE
:06003700E4787FF6D8FD1D
:080015007900E94400601B7A48
:05001D00009000E078F6
:030022000075A0C6
:0A00250000E493F2A308B8000205FE
:08002F00A0D9F4DAF275A0FF7C
:08003D007800E84400600A7934
:030045000075A0A3
:0600480000E4F309D8FCFE
:08004E007800E84400600C7921
:0B00560000900000E4F0A3D8FCD9FAF1
:0300080075811AE5
:0A000B001200DCE58260030200032E
:0400DC007582002207
:00000001FF
