:03000000020008F3
:07006100750803750DC07561
:060068000EF9750FA475EE
:06006E0010B07511997538
:0600740012927513827563
:06007A0014F075158075FD
:020080001690D8
:0300820002000376
:0500030012016B80FEFC
:07008500750BFFE4F50C759B
:0A008C0009FFE4F50AD290D2917545
:060096001B01E4F51CF55E
:04009C001DF51E220E
:0B00A000AA82D2B0D2B1D2B2E51F2478
:0900AB000DF886A0BA0002800ADB
:0500B400BA0102800CFE
:0500B900BA0216800EE2
:0700BE00D2B1D2B2C2B022A0
:0700C500D2B0D2B2C2B12299
:0600CC00D2B3D2B1C2B2B2
:0100D200220B
:0C00D300AA82AB83E520700B8A0475F054
:0700DF000AEC8485F0822287
:0A00E6007401B5201875210AE4F535
:0C00F000228A828B831201AFAC8275F073
:0700FC000AEC8485F082226A
:0A010300752164E4F5228A828B83E3
:03010D000201AF3D
:06011000AA82AB837C0013
:0A011600C3EC950850248C208A8267
:0D0120008B83C002C003C0041200D385828F
:0C012D001FD0048C82C0041200A0D0047B
:07013900D003D0020C80D6B8
:01014000229C
:09014100309113C3E509950BE5AB
:06014A000A950C500805A7
:0601500009E4B5090205F7
:010156000A9E
:010157002285
:0A01580030900FE509450A60091513
:070162000974FFB509021545
:010169000A8B
:01016A002272
:03016B00120085FA
:08016E00120158120141E4F5F1
:0401760017F518F56C
:03017A0019F51A5A
:06017D00C3E517951BE528
:0401830018951CE5CA
:0401870019951DE5C4
:06018B001A951E50140538
:0601910017E4B517E705B5
:0501970018B518E20597
:05019C0019B519DD0595
:0301A1001A80D9E8
:0701A400850982850A831220
:0401AB00011080BF00
:0501AF007A10E4FBFCE6
:0E01B400E58225E0F582E58333F583EB33FB2E
:0A01C200EC33FCEB9521F5F0EC9511
:0901CC00224006FCABF043820165
:0301D500DADD224E
:06003700E4787FF6D8FD1D
:080015007900E94400601B7A48
:05001D00009001DC78F9
:030022000075A0C6
:0A00250000E493F2A308B8000205FE
:08002F00A0D9F4DAF275A0FF7C
:08003D007800E84400600A7934
:030045000075A0A3
:0600480000E4F309D8FCFE
:08004E007800E84400600C7921
:0B00560000900000E4F0A3D8FCD9FAF1
:03000800758122DD
:0A000B001201D8E582600302000331
:0401D800758200220A
:00000001FF
