:03000000020008F3
:07006100750803750CC07562
:060068000DF9750EA475F0
:06006E000FB0751099753A
:0600740011927512827565
:06007A0013F075148075FF
:020080001590D9
:0300820002000376
:0500030012016380FE04
:07008500750A09E4F50B7593
:0A008C000909D290D291751A01E41F
:05009600F51BF51CF54F
:02009B001D2224
:0B009D00AA82D2B0D2B1D2B2E51E247C
:0900A8000CF886A0BA0002800ADF
:0500B100BA0102800C01
:0500B600BA0216800EE5
:0700BB00D2B1D2B2C2B022A3
:0700C200D2B0D2B2C2B1229C
:0600C900D2B3D2B1C2B2B5
:0100CF00220E
:0C00D000AA82AB83E51F700B8A0475F058
:0700DC000AEC8485F082228A
:0A00E3007401B51F1875200AE4F53A
:0C00ED00218A828B831201A9AC8275F07D
:0700F9000AEC8485F082226D
:0A010000752064E4F5218A828B83E8
:03010A000201A946
:06010D00AA82AB837C0016
:0A011300C3EC9508502CEC04FD8DA0
:0C011D001F8A828B83C002C003C004C094
:0C012900051200D085821ED005D0048C89
:0E01350082C00512009DD005D003D0028D04BB
:0201430080CE6C
:010145002297
:0A01460030910FAA097B00C3EA956F
:070150000AEB950B500205BC
:01015700099E
:010158002284
:09015900309006E5096002150969
:01016200227A
:0301630012008502
:08016600120159120146E4F5F3
:04016E0016F517F576
:0301720018F51964
:06017500C3E516951AE532
:04017B0017951BE5D4
:04017F0018951CE5CE
:0601830019951D50140542
:0601890016E4B516E705BF
:05018F0017B517E205A1
:0501940018B518DD059F
:030199001980D9F1
:0C019C00AA097B008A828B8312010D806F
:0101A800BD99
:0501A9007A10E4FBFCEC
:0E01AE00E58225E0F582E58333F583EB33FB34
:0A01BC00EC33FCEB9520F5F0EC9518
:0901C600214006FCABF04382016C
:0301CF00DADD2254
:06003700E4787FF6D8FD1D
:080015007900E94400601B7A48
:05001D00009001D678FF
:030022000075A0C6
:0A00250000E493F2A308B8000205FE
:08002F00A0D9F4DAF275A0FF7C
:08003D007800E84400600A7934
:030045000075A0A3
:0600480000E4F309D8FCFE
:08004E007800E84400600C7921
:0B00560000900000E4F0A3D8FCD9FAF1
:03000800758121DE
:0A000B001201D2E582600302000337
:0401D2007582002210
:00000001FF
